{
  "contractName": "Controllable",
  "abi": [
    {
      "constant": true,
      "inputs": [],
      "name": "controller",
      "outputs": [
        {
          "name": "",
          "type": "address"
        }
      ],
      "payable": false,
      "stateMutability": "view",
      "type": "function"
    },
    {
      "inputs": [],
      "payable": false,
      "stateMutability": "nonpayable",
      "type": "constructor"
    },
    {
      "constant": false,
      "inputs": [
        {
          "name": "newController",
          "type": "address"
        }
      ],
      "name": "transferControl",
      "outputs": [],
      "payable": false,
      "stateMutability": "nonpayable",
      "type": "function"
    }
  ],
  "bytecode": "0x6060604052341561000f57600080fd5b60008054600160a060020a033316600160a060020a031990911617905561011e8061003b6000396000f300606060405263ffffffff7c01000000000000000000000000000000000000000000000000000000006000350416636d16fa4181146045578063f77c479114606357600080fd5b3415604f57600080fd5b6061600160a060020a0360043516608f565b005b3415606d57600080fd5b607360e3565b604051600160a060020a03909116815260200160405180910390f35b60005433600160a060020a0390811691161460a957600080fd5b600160a060020a0381161560e0576000805473ffffffffffffffffffffffffffffffffffffffff1916600160a060020a0383161790555b50565b600054600160a060020a0316815600a165627a7a7230582021039c60617bb3d0f9f7855a9ebf01923f1fc365c3ac9fd4a737ec5a4276234c0029",
  "source": "pragma solidity 0.4.17;\n\n\n/**\n * @title Controllable\n * @dev The Controllable contract has an controller address, and provides basic authorization control\n * functions, this simplifies the implementation of \"user permissions\".\n */\ncontract Controllable {\n  address public controller;\n\n\n  /**\n   * @dev The Ownable constructor sets the original `owner` of the contract to the sender account.\n   */\n  function Controllable() public {\n    controller = msg.sender;\n  }\n\n  /**\n   * @dev Throws if called by any account other than the owner.\n   */\n  modifier onlyController() {\n    require(msg.sender == controller);\n    _;\n  }\n\n  /**\n   * @dev Allows the current owner to transfer control of the contract to a newOwner.\n   * @param newController The address to transfer ownership to.\n   */\n  function transferControl(address newController) public onlyController {\n    if (newController != address(0)) {\n      controller = newController;\n    }\n  }\n\n}\n",
  "sourcePath": "/Users/thanhtu/Projects/Blockchain/novalex-dex-starterkit/tokensale/contracts/contracts/Controllable.sol",
  "compiler": {
    "name": "solc",
    "version": "0.4.17+commit.bdeb9e52.Emscripten.clang"
  },
  "schemaVersion": "3.0.11",
  "updatedAt": "2019-06-27T04:09:14.839Z",
  "devdoc": {
    "methods": {
      "transferControl(address)": {
        "details": "Allows the current owner to transfer control of the contract to a newOwner.",
        "params": {
          "newController": "The address to transfer ownership to."
        }
      }
    },
    "title": "Controllable"
  },
  "userdoc": {
    "methods": {}
  }
}