{
  "contractName": "Migrations",
  "abi": [
    {
      "constant": true,
      "inputs": [],
      "name": "last_completed_migration",
      "outputs": [
        {
          "name": "",
          "type": "uint256"
        }
      ],
      "payable": false,
      "stateMutability": "view",
      "type": "function"
    },
    {
      "constant": true,
      "inputs": [],
      "name": "owner",
      "outputs": [
        {
          "name": "",
          "type": "address"
        }
      ],
      "payable": false,
      "stateMutability": "view",
      "type": "function"
    },
    {
      "inputs": [],
      "payable": false,
      "stateMutability": "nonpayable",
      "type": "constructor"
    },
    {
      "constant": false,
      "inputs": [
        {
          "name": "completed",
          "type": "uint256"
        }
      ],
      "name": "setCompleted",
      "outputs": [],
      "payable": false,
      "stateMutability": "nonpayable",
      "type": "function"
    },
    {
      "constant": false,
      "inputs": [
        {
          "name": "new_address",
          "type": "address"
        }
      ],
      "name": "upgrade",
      "outputs": [],
      "payable": false,
      "stateMutability": "nonpayable",
      "type": "function"
    }
  ],
  "bytecode": "0x6060604052341561000f57600080fd5b60008054600160a060020a033316600160a060020a03199091161790556101de8061003b6000396000f300606060405263ffffffff7c01000000000000000000000000000000000000000000000000000000006000350416630900f010811461005d578063445df0ac1461007e5780638da5cb5b146100a3578063fdacd576146100d257600080fd5b341561006857600080fd5b61007c600160a060020a03600435166100e8565b005b341561008957600080fd5b61009161017d565b60405190815260200160405180910390f35b34156100ae57600080fd5b6100b6610183565b604051600160a060020a03909116815260200160405180910390f35b34156100dd57600080fd5b61007c600435610192565b6000805433600160a060020a03908116911614156101795781905080600160a060020a031663fdacd5766001546040517c010000000000000000000000000000000000000000000000000000000063ffffffff84160281526004810191909152602401600060405180830381600087803b151561016457600080fd5b6102c65a03f1151561017557600080fd5b5050505b5050565b60015481565b600054600160a060020a031681565b60005433600160a060020a03908116911614156101af5760018190555b505600a165627a7a7230582062ee1d2bb4b0b42074809900a2185e151f21befd6a96df2fa284bb52106b3d6f0029",
  "source": "pragma solidity 0.4.17;\n\ncontract Migrations {\n  address public owner;\n  uint public last_completed_migration;\n\n  modifier restricted() {\n    if (msg.sender == owner) _;\n  }\n\n  function Migrations() {\n    owner = msg.sender;\n  }\n\n  function setCompleted(uint completed) restricted {\n    last_completed_migration = completed;\n  }\n\n  function upgrade(address new_address) restricted {\n    Migrations upgraded = Migrations(new_address);\n    upgraded.setCompleted(last_completed_migration);\n  }\n}\n",
  "sourcePath": "/Users/thanhtu/Projects/Blockchain/novalex-dex-starterkit/tokensale/contracts/contracts/Migrations.sol",
  "compiler": {
    "name": "solc",
    "version": "0.4.17+commit.bdeb9e52.Emscripten.clang"
  },
  "schemaVersion": "3.0.11",
  "updatedAt": "2019-06-27T04:09:16.429Z",
  "devdoc": {
    "methods": {}
  },
  "userdoc": {
    "methods": {}
  }
}