{
  "contractName": "NovaPresaleToken",
  "abi": [
    {
      "constant": true,
      "inputs": [],
      "name": "mintingFinished",
      "outputs": [
        {
          "name": "",
          "type": "bool"
        }
      ],
      "payable": false,
      "stateMutability": "view",
      "type": "function"
    },
    {
      "constant": true,
      "inputs": [],
      "name": "name",
      "outputs": [
        {
          "name": "",
          "type": "string"
        }
      ],
      "payable": false,
      "stateMutability": "view",
      "type": "function"
    },
    {
      "constant": true,
      "inputs": [],
      "name": "totalSupply",
      "outputs": [
        {
          "name": "",
          "type": "uint256"
        }
      ],
      "payable": false,
      "stateMutability": "view",
      "type": "function"
    },
    {
      "constant": true,
      "inputs": [],
      "name": "decimals",
      "outputs": [
        {
          "name": "",
          "type": "uint8"
        }
      ],
      "payable": false,
      "stateMutability": "view",
      "type": "function"
    },
    {
      "constant": false,
      "inputs": [
        {
          "name": "newController",
          "type": "address"
        }
      ],
      "name": "transferControl",
      "outputs": [],
      "payable": false,
      "stateMutability": "nonpayable",
      "type": "function"
    },
    {
      "constant": true,
      "inputs": [],
      "name": "symbol",
      "outputs": [
        {
          "name": "",
          "type": "string"
        }
      ],
      "payable": false,
      "stateMutability": "view",
      "type": "function"
    },
    {
      "constant": true,
      "inputs": [],
      "name": "controller",
      "outputs": [
        {
          "name": "",
          "type": "address"
        }
      ],
      "payable": false,
      "stateMutability": "view",
      "type": "function"
    },
    {
      "inputs": [],
      "payable": false,
      "stateMutability": "nonpayable",
      "type": "constructor"
    },
    {
      "payable": true,
      "stateMutability": "payable",
      "type": "fallback"
    },
    {
      "anonymous": false,
      "inputs": [
        {
          "indexed": true,
          "name": "to",
          "type": "address"
        },
        {
          "indexed": false,
          "name": "amount",
          "type": "uint256"
        }
      ],
      "name": "Mint",
      "type": "event"
    },
    {
      "anonymous": false,
      "inputs": [],
      "name": "MintFinished",
      "type": "event"
    },
    {
      "anonymous": false,
      "inputs": [
        {
          "indexed": true,
          "name": "from",
          "type": "address"
        },
        {
          "indexed": true,
          "name": "to",
          "type": "address"
        },
        {
          "indexed": false,
          "name": "value",
          "type": "uint256"
        }
      ],
      "name": "Transfer",
      "type": "event"
    },
    {
      "anonymous": false,
      "inputs": [
        {
          "indexed": true,
          "name": "owner",
          "type": "address"
        },
        {
          "indexed": true,
          "name": "spender",
          "type": "address"
        },
        {
          "indexed": false,
          "name": "value",
          "type": "uint256"
        }
      ],
      "name": "Approval",
      "type": "event"
    },
    {
      "constant": true,
      "inputs": [
        {
          "name": "_owner",
          "type": "address"
        }
      ],
      "name": "balanceOf",
      "outputs": [
        {
          "name": "",
          "type": "uint256"
        }
      ],
      "payable": false,
      "stateMutability": "view",
      "type": "function"
    },
    {
      "constant": false,
      "inputs": [
        {
          "name": "_to",
          "type": "address"
        },
        {
          "name": "_value",
          "type": "uint256"
        }
      ],
      "name": "transfer",
      "outputs": [
        {
          "name": "",
          "type": "bool"
        }
      ],
      "payable": false,
      "stateMutability": "nonpayable",
      "type": "function"
    },
    {
      "constant": false,
      "inputs": [
        {
          "name": "_from",
          "type": "address"
        },
        {
          "name": "_to",
          "type": "address"
        },
        {
          "name": "_value",
          "type": "uint256"
        }
      ],
      "name": "transferFrom",
      "outputs": [
        {
          "name": "",
          "type": "bool"
        }
      ],
      "payable": false,
      "stateMutability": "nonpayable",
      "type": "function"
    },
    {
      "constant": false,
      "inputs": [
        {
          "name": "_spender",
          "type": "address"
        },
        {
          "name": "_value",
          "type": "uint256"
        }
      ],
      "name": "approve",
      "outputs": [
        {
          "name": "",
          "type": "bool"
        }
      ],
      "payable": false,
      "stateMutability": "nonpayable",
      "type": "function"
    },
    {
      "constant": true,
      "inputs": [
        {
          "name": "_owner",
          "type": "address"
        },
        {
          "name": "_spender",
          "type": "address"
        }
      ],
      "name": "allowance",
      "outputs": [
        {
          "name": "",
          "type": "uint256"
        }
      ],
      "payable": false,
      "stateMutability": "view",
      "type": "function"
    },
    {
      "constant": false,
      "inputs": [
        {
          "name": "_to",
          "type": "address"
        },
        {
          "name": "_amount",
          "type": "uint256"
        }
      ],
      "name": "mint",
      "outputs": [
        {
          "name": "",
          "type": "bool"
        }
      ],
      "payable": false,
      "stateMutability": "nonpayable",
      "type": "function"
    },
    {
      "constant": false,
      "inputs": [],
      "name": "finishMinting",
      "outputs": [
        {
          "name": "",
          "type": "bool"
        }
      ],
      "payable": false,
      "stateMutability": "nonpayable",
      "type": "function"
    }
  ],
  "bytecode": "0x60606040526005805460ff19169055341561001957600080fd5b60018054600160a060020a03191633600160a060020a03161790556107fd806100436000396000f300606060405236156100cd5763ffffffff7c010000000000000000000000000000000000000000000000000000000060003504166305d2035b81146100d257806306fdde03146100f9578063095ea7b31461018357806318160ddd146101a557806323b872dd146101ca578063313ce567146101f257806340c10f191461021b5780636d16fa411461023d57806370a082311461025e5780637d64bcb41461027d57806395d89b4114610290578063a9059cbb146102a3578063dd62ed3e146102c5578063f77c4791146102ea575b600080fd5b34156100dd57600080fd5b6100e5610319565b604051901515815260200160405180910390f35b341561010457600080fd5b61010c610322565b60405160208082528190810183818151815260200191508051906020019080838360005b83811015610148578082015183820152602001610130565b50505050905090810190601f1680156101755780820380516001836020036101000a031916815260200191505b509250505060405180910390f35b341561018e57600080fd5b6100e5600160a060020a0360043516602435610359565b34156101b057600080fd5b6101b86103c5565b60405190815260200160405180910390f35b34156101d557600080fd5b6100e5600160a060020a03600435811690602435166044356103cb565b34156101fd57600080fd5b6102056104de565b60405160ff909116815260200160405180910390f35b341561022657600080fd5b6100e5600160a060020a03600435166024356104e3565b341561024857600080fd5b61025c600160a060020a03600435166105ab565b005b341561026957600080fd5b6101b8600160a060020a0360043516610601565b341561028857600080fd5b6100e561061c565b341561029b57600080fd5b61010c610679565b34156102ae57600080fd5b6100e5600160a060020a03600435166024356106b0565b34156102d057600080fd5b6101b8600160a060020a036004358116906024351661076f565b34156102f557600080fd5b6102fd61079a565b604051600160a060020a03909116815260200160405180910390f35b60055460ff1681565b60408051908101604052601281527f4e6f76612050726573616c6520546f6b656e0000000000000000000000000000602082015281565b600160a060020a03338116600081815260046020908152604080832094871680845294909152808220859055909291907f8c5be1e5ebec7d5bd14f71427d1e84f3dd0314c0f7b2291e5b200ac8c7c3b9259085905190815260200160405180910390a350600192915050565b60025481565b600160a060020a038084166000908152600460209081526040808320338516845282528083205493861683526003909152812054909190610412908463ffffffff6107a916565b600160a060020a038086166000908152600360205260408082209390935590871681522054610447908463ffffffff6107bf16565b600160a060020a038616600090815260036020526040902055610470818463ffffffff6107bf16565b600160a060020a03808716600081815260046020908152604080832033861684529091529081902093909355908616917fddf252ad1be2c89b69c2b068fc378daa952ba7f163c4a11628f55a4df523b3ef9086905190815260200160405180910390a3506001949350505050565b601281565b60015460009033600160a060020a0390811691161461050157600080fd5b60055460ff161561051157600080fd5b600254610524908363ffffffff6107a916565b600255600160a060020a038316600090815260036020526040902054610550908363ffffffff6107a916565b600160a060020a0384166000818152600360205260409081902092909255907f0f6798a560793a54c3bcfe86a93cde1e73087d944c0ea20544137d41213968859084905190815260200160405180910390a250600192915050565b60015433600160a060020a039081169116146105c657600080fd5b600160a060020a038116156105fe576001805473ffffffffffffffffffffffffffffffffffffffff1916600160a060020a0383161790555b50565b600160a060020a031660009081526003602052604090205490565b60015460009033600160a060020a0390811691161461063a57600080fd5b6005805460ff191660011790557fae5184fba832cb2b1f702aca6117b8d265eaf03ad33eb133f19dde0f5920fa0860405160405180910390a150600190565b60408051908101604052600481527f4e6f766100000000000000000000000000000000000000000000000000000000602082015281565b600160a060020a0333166000908152600360205260408120546106d9908363ffffffff6107bf16565b600160a060020a03338116600090815260036020526040808220939093559085168152205461070e908363ffffffff6107a916565b600160a060020a0380851660008181526003602052604090819020939093559133909116907fddf252ad1be2c89b69c2b068fc378daa952ba7f163c4a11628f55a4df523b3ef9085905190815260200160405180910390a350600192915050565b600160a060020a03918216600090815260046020908152604080832093909416825291909152205490565b600154600160a060020a031681565b6000828201838110156107b857fe5b9392505050565b6000828211156107cb57fe5b509003905600a165627a7a72305820153b6bed71959535ed52793e661542a01c7c5b80189cd6652e591765cfed74c30029",
  "source": "pragma solidity 0.4.17;\n\nimport './SafeMath.sol';\nimport './ERC20.sol';\nimport './Controllable.sol';\n\n/**\n * @title NovaPresaleToken (PROOFP)\n * Standard Mintable ERC20 Token\n * https://github.com/ethereum/EIPs/issues/20\n * Based on code by FirstBlood:\n * https://github.com/Firstbloodio/token/blob/master/smart_contract/FirstBloodToken.sol\n */\n\ncontract NovaPresaleToken is ERC20, Controllable {\n\n  using SafeMath for uint256;\n\n  uint256 public totalSupply;\n\n  mapping(address => uint) balances;\n  mapping (address => mapping (address => uint)) allowed;\n\n  string public constant name = \"Nova Presale Token\";\n  string public constant symbol = \"Nova\";\n  uint8 public constant decimals = 18;\n  bool public mintingFinished = false;\n\n  event Mint(address indexed to, uint256 amount);\n  event MintFinished();\n\n  function NovaPresaleToken() {}\n\n  function() payable {\n    revert();\n  }\n\n  function balanceOf(address _owner) constant returns (uint256) {\n    return balances[_owner];\n  }\n\n  function transfer(address _to, uint _value) returns (bool) {\n\n    balances[msg.sender] = balances[msg.sender].sub(_value);\n    balances[_to] = balances[_to].add(_value);\n\n    Transfer(msg.sender, _to, _value);\n    return true;\n  }\n\n  function transferFrom(address _from, address _to, uint _value) returns (bool) {\n    var _allowance = allowed[_from][msg.sender];\n\n    balances[_to] = balances[_to].add(_value);\n    balances[_from] = balances[_from].sub(_value);\n    allowed[_from][msg.sender] = _allowance.sub(_value);\n\n    Transfer(_from, _to, _value);\n    return true;\n  }\n\n  function approve(address _spender, uint _value) returns (bool) {\n    allowed[msg.sender][_spender] = _value;\n    Approval(msg.sender, _spender, _value);\n    return true;\n  }\n\n  function allowance(address _owner, address _spender) constant returns (uint256) {\n    return allowed[_owner][_spender];\n  }\n\n\n  modifier canMint() {\n    require(!mintingFinished);\n    _;\n  }\n\n  function mint(address _to, uint256 _amount) onlyController canMint returns (bool) {\n    totalSupply = totalSupply.add(_amount);\n    balances[_to] = balances[_to].add(_amount);\n    Mint(_to, _amount);\n    return true;\n  }\n\n  function finishMinting() onlyController returns (bool) {\n    mintingFinished = true;\n    MintFinished();\n    return true;\n  }\n\n\n}",
  "sourcePath": "/Users/thanhtu/Projects/Blockchain/novalex-dex-starterkit/tokensale/contracts/contracts/NovaPresaleToken.sol",
  "compiler": {
    "name": "solc",
    "version": "0.4.17+commit.bdeb9e52.Emscripten.clang"
  },
  "schemaVersion": "3.0.11",
  "updatedAt": "2019-06-27T04:09:16.425Z",
  "devdoc": {
    "methods": {
      "transferControl(address)": {
        "details": "Allows the current owner to transfer control of the contract to a newOwner.",
        "params": {
          "newController": "The address to transfer ownership to."
        }
      }
    },
    "title": "NovaPresaleToken (PROOFP) Standard Mintable ERC20 Token https://github.com/ethereum/EIPs/issues/20 Based on code by FirstBlood: https://github.com/Firstbloodio/token/blob/master/smart_contract/FirstBloodToken.sol"
  },
  "userdoc": {
    "methods": {}
  }
}