{
  "contractName": "TokenSale",
  "abi": [
    {
      "constant": true,
      "inputs": [],
      "name": "allocatedTokens",
      "outputs": [
        {
          "name": "",
          "type": "uint256"
        }
      ],
      "payable": false,
      "stateMutability": "view",
      "type": "function"
    },
    {
      "constant": true,
      "inputs": [],
      "name": "BASE_PRICE_IN_WEI",
      "outputs": [
        {
          "name": "",
          "type": "uint256"
        }
      ],
      "payable": false,
      "stateMutability": "view",
      "type": "function"
    },
    {
      "constant": true,
      "inputs": [],
      "name": "novaToken",
      "outputs": [
        {
          "name": "",
          "type": "address"
        }
      ],
      "payable": false,
      "stateMutability": "view",
      "type": "function"
    },
    {
      "constant": true,
      "inputs": [],
      "name": "started",
      "outputs": [
        {
          "name": "",
          "type": "bool"
        }
      ],
      "payable": false,
      "stateMutability": "view",
      "type": "function"
    },
    {
      "constant": true,
      "inputs": [],
      "name": "firstDiscountPrice",
      "outputs": [
        {
          "name": "",
          "type": "uint256"
        }
      ],
      "payable": false,
      "stateMutability": "view",
      "type": "function"
    },
    {
      "constant": true,
      "inputs": [],
      "name": "endTime",
      "outputs": [
        {
          "name": "",
          "type": "uint256"
        }
      ],
      "payable": false,
      "stateMutability": "view",
      "type": "function"
    },
    {
      "constant": true,
      "inputs": [],
      "name": "cap",
      "outputs": [
        {
          "name": "",
          "type": "uint256"
        }
      ],
      "payable": false,
      "stateMutability": "view",
      "type": "function"
    },
    {
      "constant": false,
      "inputs": [],
      "name": "unpause",
      "outputs": [
        {
          "name": "",
          "type": "bool"
        }
      ],
      "payable": false,
      "stateMutability": "nonpayable",
      "type": "function"
    },
    {
      "constant": true,
      "inputs": [],
      "name": "secondDiscountPrice",
      "outputs": [
        {
          "name": "",
          "type": "uint256"
        }
      ],
      "payable": false,
      "stateMutability": "view",
      "type": "function"
    },
    {
      "constant": true,
      "inputs": [],
      "name": "firstDiscountCap",
      "outputs": [
        {
          "name": "",
          "type": "uint256"
        }
      ],
      "payable": false,
      "stateMutability": "view",
      "type": "function"
    },
    {
      "constant": true,
      "inputs": [],
      "name": "thirdDiscountPrice",
      "outputs": [
        {
          "name": "",
          "type": "uint256"
        }
      ],
      "payable": false,
      "stateMutability": "view",
      "type": "function"
    },
    {
      "constant": true,
      "inputs": [],
      "name": "totalWeiRaised",
      "outputs": [
        {
          "name": "",
          "type": "uint256"
        }
      ],
      "payable": false,
      "stateMutability": "view",
      "type": "function"
    },
    {
      "constant": true,
      "inputs": [],
      "name": "TOKENS_ALLOCATED_TO_PROOF",
      "outputs": [
        {
          "name": "",
          "type": "uint256"
        }
      ],
      "payable": false,
      "stateMutability": "view",
      "type": "function"
    },
    {
      "constant": true,
      "inputs": [],
      "name": "paused",
      "outputs": [
        {
          "name": "",
          "type": "bool"
        }
      ],
      "payable": false,
      "stateMutability": "view",
      "type": "function"
    },
    {
      "constant": true,
      "inputs": [],
      "name": "novaTokensAllocated",
      "outputs": [
        {
          "name": "",
          "type": "bool"
        }
      ],
      "payable": false,
      "stateMutability": "view",
      "type": "function"
    },
    {
      "constant": true,
      "inputs": [],
      "name": "tokensMinted",
      "outputs": [
        {
          "name": "",
          "type": "uint256"
        }
      ],
      "payable": false,
      "stateMutability": "view",
      "type": "function"
    },
    {
      "constant": true,
      "inputs": [],
      "name": "contributors",
      "outputs": [
        {
          "name": "",
          "type": "uint256"
        }
      ],
      "payable": false,
      "stateMutability": "view",
      "type": "function"
    },
    {
      "constant": true,
      "inputs": [],
      "name": "TOTAL_PRESALE_TOKENS",
      "outputs": [
        {
          "name": "",
          "type": "uint256"
        }
      ],
      "payable": false,
      "stateMutability": "view",
      "type": "function"
    },
    {
      "constant": true,
      "inputs": [],
      "name": "startTime",
      "outputs": [
        {
          "name": "",
          "type": "uint256"
        }
      ],
      "payable": false,
      "stateMutability": "view",
      "type": "function"
    },
    {
      "constant": false,
      "inputs": [],
      "name": "pause",
      "outputs": [
        {
          "name": "",
          "type": "bool"
        }
      ],
      "payable": false,
      "stateMutability": "nonpayable",
      "type": "function"
    },
    {
      "constant": true,
      "inputs": [],
      "name": "weiCap",
      "outputs": [
        {
          "name": "",
          "type": "uint256"
        }
      ],
      "payable": false,
      "stateMutability": "view",
      "type": "function"
    },
    {
      "constant": true,
      "inputs": [],
      "name": "owner",
      "outputs": [
        {
          "name": "",
          "type": "address"
        }
      ],
      "payable": false,
      "stateMutability": "view",
      "type": "function"
    },
    {
      "constant": true,
      "inputs": [],
      "name": "novaMultiSig",
      "outputs": [
        {
          "name": "",
          "type": "address"
        }
      ],
      "payable": false,
      "stateMutability": "view",
      "type": "function"
    },
    {
      "constant": true,
      "inputs": [],
      "name": "thirdDiscountCap",
      "outputs": [
        {
          "name": "",
          "type": "uint256"
        }
      ],
      "payable": false,
      "stateMutability": "view",
      "type": "function"
    },
    {
      "constant": true,
      "inputs": [],
      "name": "finalized",
      "outputs": [
        {
          "name": "",
          "type": "bool"
        }
      ],
      "payable": false,
      "stateMutability": "view",
      "type": "function"
    },
    {
      "constant": true,
      "inputs": [],
      "name": "decimalsMultiplier",
      "outputs": [
        {
          "name": "",
          "type": "uint256"
        }
      ],
      "payable": false,
      "stateMutability": "view",
      "type": "function"
    },
    {
      "constant": true,
      "inputs": [],
      "name": "remainingTokens",
      "outputs": [
        {
          "name": "",
          "type": "uint256"
        }
      ],
      "payable": false,
      "stateMutability": "view",
      "type": "function"
    },
    {
      "constant": true,
      "inputs": [],
      "name": "tokenCap",
      "outputs": [
        {
          "name": "",
          "type": "uint256"
        }
      ],
      "payable": false,
      "stateMutability": "view",
      "type": "function"
    },
    {
      "constant": true,
      "inputs": [],
      "name": "secondDiscountCap",
      "outputs": [
        {
          "name": "",
          "type": "uint256"
        }
      ],
      "payable": false,
      "stateMutability": "view",
      "type": "function"
    },
    {
      "constant": false,
      "inputs": [
        {
          "name": "newOwner",
          "type": "address"
        }
      ],
      "name": "transferOwnership",
      "outputs": [],
      "payable": false,
      "stateMutability": "nonpayable",
      "type": "function"
    },
    {
      "constant": true,
      "inputs": [],
      "name": "PUBLIC_TOKENS",
      "outputs": [
        {
          "name": "",
          "type": "uint256"
        }
      ],
      "payable": false,
      "stateMutability": "view",
      "type": "function"
    },
    {
      "inputs": [
        {
          "name": "_tokenAddress",
          "type": "address"
        },
        {
          "name": "_startTime",
          "type": "uint256"
        },
        {
          "name": "_endTime",
          "type": "uint256"
        }
      ],
      "payable": false,
      "stateMutability": "nonpayable",
      "type": "constructor"
    },
    {
      "payable": true,
      "stateMutability": "payable",
      "type": "fallback"
    },
    {
      "anonymous": false,
      "inputs": [
        {
          "indexed": true,
          "name": "purchaser",
          "type": "address"
        },
        {
          "indexed": true,
          "name": "beneficiary",
          "type": "address"
        },
        {
          "indexed": false,
          "name": "value",
          "type": "uint256"
        },
        {
          "indexed": false,
          "name": "amount",
          "type": "uint256"
        }
      ],
      "name": "TokenPurchase",
      "type": "event"
    },
    {
      "anonymous": false,
      "inputs": [
        {
          "indexed": true,
          "name": "_cloneToken",
          "type": "address"
        }
      ],
      "name": "NewClonedToken",
      "type": "event"
    },
    {
      "anonymous": false,
      "inputs": [
        {
          "indexed": false,
          "name": "_from",
          "type": "address"
        },
        {
          "indexed": false,
          "name": "_to",
          "type": "address"
        },
        {
          "indexed": false,
          "name": "_amount",
          "type": "uint256"
        }
      ],
      "name": "OnTransfer",
      "type": "event"
    },
    {
      "anonymous": false,
      "inputs": [
        {
          "indexed": false,
          "name": "_owner",
          "type": "address"
        },
        {
          "indexed": false,
          "name": "_spender",
          "type": "address"
        },
        {
          "indexed": false,
          "name": "_amount",
          "type": "uint256"
        }
      ],
      "name": "OnApprove",
      "type": "event"
    },
    {
      "anonymous": false,
      "inputs": [
        {
          "indexed": false,
          "name": "_name",
          "type": "string"
        },
        {
          "indexed": false,
          "name": "_value",
          "type": "uint256"
        }
      ],
      "name": "LogInt",
      "type": "event"
    },
    {
      "anonymous": false,
      "inputs": [],
      "name": "Finalized",
      "type": "event"
    },
    {
      "anonymous": false,
      "inputs": [],
      "name": "Pause",
      "type": "event"
    },
    {
      "anonymous": false,
      "inputs": [],
      "name": "Unpause",
      "type": "event"
    },
    {
      "constant": false,
      "inputs": [
        {
          "name": "_beneficiary",
          "type": "address"
        }
      ],
      "name": "buyTokens",
      "outputs": [],
      "payable": true,
      "stateMutability": "payable",
      "type": "function"
    },
    {
      "constant": true,
      "inputs": [],
      "name": "getPriceInWei",
      "outputs": [
        {
          "name": "",
          "type": "uint256"
        }
      ],
      "payable": false,
      "stateMutability": "view",
      "type": "function"
    },
    {
      "constant": true,
      "inputs": [],
      "name": "totalSupply",
      "outputs": [
        {
          "name": "",
          "type": "uint256"
        }
      ],
      "payable": false,
      "stateMutability": "view",
      "type": "function"
    },
    {
      "constant": true,
      "inputs": [
        {
          "name": "_owner",
          "type": "address"
        }
      ],
      "name": "balanceOf",
      "outputs": [
        {
          "name": "",
          "type": "uint256"
        }
      ],
      "payable": false,
      "stateMutability": "view",
      "type": "function"
    },
    {
      "constant": false,
      "inputs": [
        {
          "name": "_newController",
          "type": "address"
        }
      ],
      "name": "changeController",
      "outputs": [],
      "payable": false,
      "stateMutability": "nonpayable",
      "type": "function"
    },
    {
      "constant": false,
      "inputs": [],
      "name": "enableTransfers",
      "outputs": [],
      "payable": false,
      "stateMutability": "nonpayable",
      "type": "function"
    },
    {
      "constant": false,
      "inputs": [],
      "name": "lockTransfers",
      "outputs": [],
      "payable": false,
      "stateMutability": "nonpayable",
      "type": "function"
    },
    {
      "constant": false,
      "inputs": [],
      "name": "enableMasterTransfers",
      "outputs": [],
      "payable": false,
      "stateMutability": "nonpayable",
      "type": "function"
    },
    {
      "constant": false,
      "inputs": [],
      "name": "lockMasterTransfers",
      "outputs": [],
      "payable": false,
      "stateMutability": "nonpayable",
      "type": "function"
    },
    {
      "constant": false,
      "inputs": [],
      "name": "forceStart",
      "outputs": [],
      "payable": false,
      "stateMutability": "nonpayable",
      "type": "function"
    },
    {
      "constant": false,
      "inputs": [],
      "name": "allocateNovaTokens",
      "outputs": [],
      "payable": false,
      "stateMutability": "nonpayable",
      "type": "function"
    },
    {
      "constant": false,
      "inputs": [],
      "name": "finalize",
      "outputs": [],
      "payable": false,
      "stateMutability": "nonpayable",
      "type": "function"
    }
  ],
  "bytecode": "0x60606040526000805460a060020a60ff0219169055600b80546201000060b060020a03191675e1e8fbf326eeed5ddac1c4a5f757f218e69c86f3000017905569e24b52a876decae878a0600c5562104e64600d556913e9f47dc72a6f700000600e55670109be3425330000600f556701195ffafa36000060105567012901c1cf39000060115568fee5d316c21f2c00006012556901fdcba62d843e5800006013556903fb974c5b087cb000006014556015805460ff1916905534156100c357600080fd5b6040516060806111ed83398101604052808051919060200180519190602001805160008054600160a060020a03191633600160a060020a039081169190911790915590925084161515905061011757600080fd5b6000821161012457600080fd5b81811161013057600080fd5b60079190915560085560018054600160a060020a031916600160a060020a0392909216919091179055670de0b6b3a7640000600655611079806101746000396000f300606060405236156101f25763ffffffff60e060020a6000350416622f956981146101fd57806309ad9dd314610222578063104e51421461023557806318160ddd146102645780631f2698ab1461027757806324fad6651461029e5780632bb70e54146102b15780632ffc7b7e146102c45780633197cbb6146102d7578063355274ea146102ea5780633cebb823146102fd5780633f4ba83a1461031c57806345c531f31461032f5780634b1dd591146103425780634bb278f3146103555780634cf76cca1461036857806353f4db011461037b57806357f664ed1461038e5780635c975abb146103a15780635e0db422146103b45780636de9f32b146103c75780636e7e3b2b146103da57806370a08231146103ed578063763fd2ab1461040c57806378e979251461041f57806382b74b89146104325780638456cb591461044557806384fe5029146104585780638da5cb5b1461046b5780638dde55dc1461047e578063af35c6c714610491578063b019ffd2146104a4578063b3f05b97146104b7578063bb13245f146104ca578063bf0d0fc9146104dd578063bf583903146104f0578063dd54291b14610503578063e2fa5fb114610516578063ec8ac4d814610529578063f2fde38b1461053d578063f3a04af41461038e578063fc5046551461055c578063ff85fba21461056f575b6101fb33610582565b005b341561020857600080fd5b610210610737565b60405190815260200160405180910390f35b341561022d57600080fd5b61021061073d565b341561024057600080fd5b610248610749565b604051600160a060020a03909116815260200160405180910390f35b341561026f57600080fd5b610210610758565b341561028257600080fd5b61028a6107c1565b604051901515815260200160405180910390f35b34156102a957600080fd5b6101fb6107ca565b34156102bc57600080fd5b6101fb610845565b34156102cf57600080fd5b6102106108a9565b34156102e257600080fd5b6102106108af565b34156102f557600080fd5b6102106108b5565b341561030857600080fd5b6101fb600160a060020a03600435166108bb565b341561032757600080fd5b61028a610930565b341561033a57600080fd5b6102106109b4565b341561034d57600080fd5b6102106109ba565b341561036057600080fd5b6101fb6109c0565b341561037357600080fd5b610210610b05565b341561038657600080fd5b610210610b0b565b341561039957600080fd5b610210610b11565b34156103ac57600080fd5b61028a610b1f565b34156103bf57600080fd5b61028a610b2f565b34156103d257600080fd5b610210610b3d565b34156103e557600080fd5b610210610b43565b34156103f857600080fd5b610210600160a060020a0360043516610b49565b341561041757600080fd5b610210610bc4565b341561042a57600080fd5b610210610bd2565b341561043d57600080fd5b6101fb610bd8565b341561045057600080fd5b61028a610c4a565b341561046357600080fd5b610210610cd3565b341561047657600080fd5b610248610cd9565b341561048957600080fd5b610248610ce8565b341561049c57600080fd5b6101fb610cfd565b34156104af57600080fd5b610210610d6c565b34156104c257600080fd5b61028a610d72565b34156104d557600080fd5b610210610d7b565b34156104e857600080fd5b6101fb610d81565b34156104fb57600080fd5b610210610e63565b341561050e57600080fd5b610210610e69565b341561052157600080fd5b610210610e6f565b6101fb600160a060020a0360043516610582565b341561054857600080fd5b6101fb600160a060020a0360043516610e75565b341561056757600080fd5b610210610ecb565b341561057a57600080fd5b6101fb610f1d565b600080548190819060a060020a900460ff161561059e57600080fd5b600b5460ff16156105ae57600080fd5b600160a060020a03841615156105c357600080fd5b6105cb610f47565b15156105d657600080fd5b3492506105e1610ecb565b6002549092506105f7908463ffffffff610f9216565b60025560065461062090839061061490869063ffffffff610fa816565b9063ffffffff610fcc16565b600354909150610636908263ffffffff610f9216565b6003819055600c54901061064957600080fd5b60055461065d90600163ffffffff610f9216565b600555600154600160a060020a03166340c10f19858360006040516020015260405160e060020a63ffffffff8516028152600160a060020a0390921660048301526024820152604401602060405180830381600087803b15156106bf57600080fd5b6102c65a03f115156106d057600080fd5b505050604051805190505083600160a060020a031633600160a060020a03167f623b3804fa71d67900d064613da8f94b9617215ee90799290593e1745087ad18858460405191825260208201526040908101905180910390a3610731610fe3565b50505050565b600a5481565b670138a388a43c000081565b600154600160a060020a031681565b600154600090600160a060020a03166318160ddd82604051602001526040518163ffffffff1660e060020a028152600401602060405180830381600087803b15156107a257600080fd5b6102c65a03f115156107b357600080fd5b505050604051805191505090565b60155460ff1681565b60005433600160a060020a039081169116146107e557600080fd5b60018054600160a060020a03169063aec318f19060405160e060020a63ffffffff84160281529015156004820152602401600060405180830381600087803b151561082f57600080fd5b6102c65a03f1151561084057600080fd5b505050565b60005433600160a060020a0390811691161461086057600080fd5b600154600160a060020a031663aec318f1600060405160e060020a63ffffffff84160281529015156004820152602401600060405180830381600087803b151561082f57600080fd5b600f5481565b60085481565b600d5481565b6108c481611020565b15156108cf57600080fd5b600154600160a060020a0316636d16fa418260405160e060020a63ffffffff8416028152600160a060020a039091166004820152602401600060405180830381600087803b151561091f57600080fd5b6102c65a03f1151561073157600080fd5b6000805433600160a060020a0390811691161461094c57600080fd5b60005460a060020a900460ff16151561096457600080fd5b6000805474ff0000000000000000000000000000000000000000191690557f7805862f689e2f13df9f062ff482ad3ad112aca9e0847911ed832e158c525b3360405160405180910390a150600190565b60105481565b60125481565b60005433600160a060020a039081169116146109db57600080fd5b60005460a060020a900460ff1615156109f357600080fd5b600b54610100900460ff161515610a0957600080fd5b600154600160a060020a0316637d64bcb46000604051602001526040518163ffffffff1660e060020a028152600401602060405180830381600087803b1515610a5157600080fd5b6102c65a03f11515610a6257600080fd5b5050506040518051505060018054600160a060020a03169063f41e60c59060405160e060020a63ffffffff84160281529015156004820152602401600060405180830381600087803b1515610ab657600080fd5b6102c65a03f11515610ac757600080fd5b5050507f6823b073d48d6e3a7d385eeb601452d680e74bb46afe3255a7d778f3a9b1768160405160405180910390a1600b805460ff19166001179055565b60115481565b60025481565b69fa17d19cc9954d3c000081565b60005460a060020a900460ff1681565b600b54610100900460ff1681565b60035481565b60055481565b600154600090600160a060020a03166370a0823183836040516020015260405160e060020a63ffffffff8416028152600160a060020a039091166004820152602401602060405180830381600087803b1515610ba457600080fd5b6102c65a03f11515610bb557600080fd5b50505060405180519392505050565b6917cc7ef452b68253876081565b60075481565b60005433600160a060020a03908116911614610bf357600080fd5b6008544210610c0157600080fd5b600154600160a060020a031663f41e60c5600060405160e060020a63ffffffff84160281529015156004820152602401600060405180830381600087803b151561082f57600080fd5b6000805433600160a060020a03908116911614610c6657600080fd5b60005460a060020a900460ff1615610c7d57600080fd5b6000805474ff0000000000000000000000000000000000000000191660a060020a1790557f6985a02210a168e66602d3235cb6db0e70f92b3ba4d376a33c0f3d9434bff62560405160405180910390a150600190565b600e5481565b600054600160a060020a031681565b600b54620100009004600160a060020a031681565b600854421015610d225760005433600160a060020a03908116911614610d2257600080fd5b60018054600160a060020a03169063f41e60c59060405160e060020a63ffffffff84160281529015156004820152602401600060405180830381600087803b151561082f57600080fd5b60145481565b600b5460ff1681565b60065481565b60005433600160a060020a03908116911614610d9c57600080fd5b600b5460ff1615610dac57600080fd5b600b54610100900460ff1615610dc157600080fd5b600154600b54600160a060020a03918216916340c10f19916201000090041669fa17d19cc9954d3c000060006040516020015260405160e060020a63ffffffff8516028152600160a060020a0390921660048301526024820152604401602060405180830381600087803b1515610e3757600080fd5b6102c65a03f11515610e4857600080fd5b50505060405180515050600b805461ff001916610100179055565b60095481565b600c5481565b60135481565b60005433600160a060020a03908116911614610e9057600080fd5b600160a060020a03811615610ec8576000805473ffffffffffffffffffffffffffffffffffffffff1916600160a060020a0383161790555b50565b6000806012546002541015610ee35750600f54610f18565b6013546002541015610ef85750601054610f18565b6014546002541015610f0d5750601154610f18565b50670138a388a43c00005b919050565b60005433600160a060020a03908116911614610f3857600080fd5b6015805460ff19166001179055565b600080600080600042935060075484101580610f65575060155460ff165b9250600854841115915034600014159050808015610f805750825b8015610f895750815b94505050505090565b600082820183811015610fa157fe5b9392505050565b6000828202831580610fc45750828482811515610fc157fe5b04145b1515610fa157fe5b6000808284811515610fda57fe5b04949350505050565b600b54600160a060020a0362010000909104163480156108fc0290604051600060405180830381858888f19350505050151561101e57600080fd5b565b600080600160a060020a038316151561103c5760009150611047565b823b90506000811191505b509190505600a165627a7a72305820ae26e513cd10351aed9977c76ec272b308fad9a328563533252eb7771afae2c30029",
  "source": "pragma solidity 0.4.17;\n\nimport './SafeMath.sol';\nimport './Pausable.sol';\nimport './NovaTokenInterface.sol';\n/**\n * @title Tokensale\n * Tokensale allows investors to make token purchases and assigns them tokens based\n\n * on a token per ETH rate. Funds collected are forwarded to a wallet as they arrive.\n */\ncontract TokenSale is Pausable {\n\n  using SafeMath for uint256;\n\n  NovaTokenInterface public novaToken;\n  uint256 public totalWeiRaised;\n  uint256 public tokensMinted;\n  uint256 public totalSupply;\n  uint256 public contributors;\n  uint256 public decimalsMultiplier;\n  uint256 public startTime;\n  uint256 public endTime;\n  uint256 public remainingTokens;\n  uint256 public allocatedTokens;\n\n  bool public finalized;\n\n  bool public novaTokensAllocated;\n  address public novaMultiSig = 0xE1e8fBf326eEed5ddAc1C4a5f757F218E69C86F3;\n\n  uint256 public constant BASE_PRICE_IN_WEI = 88000000000000000;\n  uint256 public constant PUBLIC_TOKENS = 1181031 * (10 ** 18);\n  uint256 public constant TOTAL_PRESALE_TOKENS = 112386712924725508802400;\n  uint256 public constant TOKENS_ALLOCATED_TO_PROOF = 1181031 * (10 ** 18);\n\n\n\n  uint256 public tokenCap = PUBLIC_TOKENS - TOTAL_PRESALE_TOKENS;\n  uint256 public cap = tokenCap / (10 ** 18);\n  uint256 public weiCap = cap * BASE_PRICE_IN_WEI;\n\n  uint256 public firstDiscountPrice = (BASE_PRICE_IN_WEI * 85) / 100;\n  uint256 public secondDiscountPrice = (BASE_PRICE_IN_WEI * 90) / 100;\n  uint256 public thirdDiscountPrice = (BASE_PRICE_IN_WEI * 95) / 100;\n\n  uint256 public firstDiscountCap = (weiCap * 5) / 100;\n  uint256 public secondDiscountCap = (weiCap * 10) / 100;\n  uint256 public thirdDiscountCap = (weiCap * 20) / 100;\n\n  bool public started = false;\n\n  event TokenPurchase(address indexed purchaser, address indexed beneficiary, uint256 value, uint256 amount);\n  event NewClonedToken(address indexed _cloneToken);\n  event OnTransfer(address _from, address _to, uint _amount);\n  event OnApprove(address _owner, address _spender, uint _amount);\n  event LogInt(string _name, uint256 _value);\n  event Finalized();\n\n  function TokenSale(address _tokenAddress, uint256 _startTime, uint256 _endTime) public {\n    require(_tokenAddress != 0x0);\n    require(_startTime > 0);\n    require(_endTime > _startTime);\n\n    startTime = _startTime;\n    endTime = _endTime;\n    novaToken = NovaTokenInterface(_tokenAddress);\n\n    decimalsMultiplier = (10 ** 18);\n  }\n\n\n  /**\n   * High level token purchase function\n   */\n  function() public payable {\n    buyTokens(msg.sender);\n  }\n\n  /**\n   * Low level token purchase function\n   * @param _beneficiary will receive the tokens.\n   */\n  function buyTokens(address _beneficiary) public payable whenNotPaused whenNotFinalized {\n    require(_beneficiary != 0x0);\n    require(validPurchase());\n\n    uint256 weiAmount = msg.value;\n    uint256 priceInWei = getPriceInWei();\n    totalWeiRaised = totalWeiRaised.add(weiAmount);\n\n    uint256 tokens = weiAmount.mul(decimalsMultiplier).div(priceInWei);\n    tokensMinted = tokensMinted.add(tokens);\n    require(tokensMinted < tokenCap);\n\n    contributors = contributors.add(1);\n\n    novaToken.mint(_beneficiary, tokens);\n    TokenPurchase(msg.sender, _beneficiary, weiAmount, tokens);\n    forwardFunds();\n  }\n\n\n  /**\n   * Get the price in wei for current premium\n   * @return price {uint256}\n   */\n  function getPriceInWei() constant public returns (uint256) {\n\n    uint256 price;\n\n    if (totalWeiRaised < firstDiscountCap) {\n      price = firstDiscountPrice;\n    } else if (totalWeiRaised < secondDiscountCap) {\n      price = secondDiscountPrice;\n    } else if (totalWeiRaised < thirdDiscountCap) {\n      price = thirdDiscountPrice;\n    } else {\n      price = BASE_PRICE_IN_WEI;\n    }\n\n    return price;\n  }\n\n  /**\n  * Forwards funds to the tokensale wallet\n  */\n  function forwardFunds() internal {\n    novaMultiSig.transfer(msg.value);\n  }\n\n\n  /**\n  * Validates the purchase (period, minimum amount, within cap)\n  * @return {bool} valid\n  */\n  function validPurchase() internal constant returns (bool) {\n    uint256 current = now;\n    bool presaleStarted = (current >= startTime || started);\n    bool presaleNotEnded = current <= endTime;\n    bool nonZeroPurchase = msg.value != 0;\n    return nonZeroPurchase && presaleStarted && presaleNotEnded;\n  }\n\n  /**\n  * Returns the total Nova token supply\n  * @return totalSupply {uint256} Nova Token Total Supply\n  */\n  function totalSupply() public constant returns (uint256) {\n    return novaToken.totalSupply();\n  }\n\n  /**\n  * Returns token holder Nova Token balance\n  * @param _owner {address} Token holder address\n  * @return balance {uint256} Corresponding token holder balance\n  */\n  function balanceOf(address _owner) public constant returns (uint256) {\n    return novaToken.balanceOf(_owner);\n  }\n\n  /**\n  * Change the Nova Token controller\n  * @param _newController {address} New Nova Token controller\n  */\n  function changeController(address _newController) public {\n    require(isContract(_newController));\n    novaToken.transferControl(_newController);\n  }\n\n\n  function enableTransfers() public {\n    if (now < endTime) {\n      require(msg.sender == owner);\n    }\n    novaToken.enableTransfers(true);\n  }\n\n  function lockTransfers() public onlyOwner {\n    require(now < endTime);\n    novaToken.enableTransfers(false);\n  }\n\n  function enableMasterTransfers() public onlyOwner {\n    novaToken.enableMasterTransfers(true);\n  }\n\n  function lockMasterTransfers() public onlyOwner {\n    novaToken.enableMasterTransfers(false);\n  }\n\n  function forceStart() public onlyOwner {\n    started = true;\n  }\n\n  function allocateNovaTokens() public onlyOwner whenNotFinalized {\n    require(!novaTokensAllocated);\n    novaToken.mint(novaMultiSig, TOKENS_ALLOCATED_TO_PROOF);\n    novaTokensAllocated = true;\n  }\n\n  function finalize() public onlyOwner {\n    require(paused);\n    require(novaTokensAllocated);\n\n    novaToken.finishMinting();\n    novaToken.enableTransfers(true);\n    Finalized();\n\n    finalized = true;\n  }\n\n\n  function isContract(address _addr) constant internal returns(bool) {\n    uint size;\n    if (_addr == 0)\n      return false;\n    assembly {\n        size := extcodesize(_addr)\n    }\n    return size>0;\n  }\n\n  modifier whenNotFinalized() {\n    require(!finalized);\n    _;\n  }\n\n}",
  "sourcePath": "/Users/thanhtu/Projects/Blockchain/novalex-dex-starterkit/tokensale/contracts/contracts/TokenSale.sol",
  "compiler": {
    "name": "solc",
    "version": "0.4.17+commit.bdeb9e52.Emscripten.clang"
  },
  "schemaVersion": "3.0.11",
  "updatedAt": "2019-06-27T04:09:16.163Z",
  "devdoc": {
    "methods": {
      "balanceOf(address)": {
        "params": {
          "_owner": "{address} Token holder address"
        },
        "return": "balance {uint256} Corresponding token holder balance"
      },
      "buyTokens(address)": {
        "params": {
          "_beneficiary": "will receive the tokens."
        }
      },
      "changeController(address)": {
        "params": {
          "_newController": "{address} New Nova Token controller"
        }
      },
      "getPriceInWei()": {
        "return": "price {uint256}"
      },
      "pause()": {
        "details": "called by the owner to pause, triggers stopped state"
      },
      "totalSupply()": {
        "return": "totalSupply {uint256} Nova Token Total Supply"
      },
      "transferOwnership(address)": {
        "details": "Allows the current owner to transfer control of the contract to a newOwner.",
        "params": {
          "newOwner": "The address to transfer ownership to."
        }
      },
      "unpause()": {
        "details": "called by the owner to unpause, returns to normal state"
      }
    },
    "title": "Tokensale Tokensale allows investors to make token purchases and assigns them tokens based on a token per ETH rate. Funds collected are forwarded to a wallet as they arrive."
  },
  "userdoc": {
    "methods": {
      "balanceOf(address)": {
        "notice": "Returns token holder Nova Token balance"
      },
      "buyTokens(address)": {
        "notice": "Low level token purchase function"
      },
      "changeController(address)": {
        "notice": "Change the Nova Token controller"
      },
      "getPriceInWei()": {
        "notice": "Get the price in wei for current premium"
      },
      "totalSupply()": {
        "notice": "Returns the total Nova token supply"
      }
    }
  }
}