{
  "contractName": "TokenFactory",
  "abi": [
    {
      "constant": false,
      "inputs": [
        {
          "name": "_parentToken",
          "type": "address"
        },
        {
          "name": "_snapshotBlock",
          "type": "uint256"
        },
        {
          "name": "_tokenName",
          "type": "string"
        },
        {
          "name": "_tokenSymbol",
          "type": "string"
        }
      ],
      "name": "createCloneToken",
      "outputs": [
        {
          "name": "",
          "type": "address"
        }
      ],
      "payable": false,
      "stateMutability": "nonpayable",
      "type": "function"
    }
  ],
  "bytecode": "0x6060604052341561000f57600080fd5b611c3a8061001e6000396000f300606060405263ffffffff7c010000000000000000000000000000000000000000000000000000000060003504166359b58dba811461003c57600080fd5b341561004757600080fd5b6100f06004803573ffffffffffffffffffffffffffffffffffffffff169060248035919060649060443590810190830135806020601f8201819004810201604051908101604052818152929190602084018383808284378201915050505050509190803590602001908201803590602001908080601f01602080910402602001604051908101604052818152929190602084018383808284375094965061011995505050505050565b60405173ffffffffffffffffffffffffffffffffffffffff909116815260200160405180910390f35b60008030868686866101296102e3565b73ffffffffffffffffffffffffffffffffffffffff8087168252851660208201526040810184905260a060608201818152906080830190830185818151815260200191508051906020019080838360005b8381101561019257808201518382015260200161017a565b50505050905090810190601f1680156101bf5780820380516001836020036101000a031916815260200191505b50838103825284818151815260200191508051906020019080838360005b838110156101f55780820151838201526020016101dd565b50505050905090810190601f1680156102225780820380516001836020036101000a031916815260200191505b50975050505050505050604051809103906000f080151561024257600080fd5b90508073ffffffffffffffffffffffffffffffffffffffff16636d16fa41336040517c010000000000000000000000000000000000000000000000000000000063ffffffff841602815273ffffffffffffffffffffffffffffffffffffffff9091166004820152602401600060405180830381600087803b15156102c557600080fd5b6102c65a03f115156102d657600080fd5b5091979650505050505050565b60405161191b806102f4833901905600606060405260408051908101604052600381527f302e310000000000000000000000000000000000000000000000000000000000602082015260059080516200004d9291602001906200015f565b50600980546201000060b060020a0319167531ebd457b999bf99759602f5ece5aa5033cb56b30000179055600d805461ffff1916905534156200008f57600080fd5b6040516200191b3803806200191b8339810160405280805191906020018051919060200180519190602001805182019190602001805160008054600160a060020a03338116600160a060020a031992831617909255600280548a84169083161790556001805492891692909116919091179055600785905590910190506003828051620001219291602001906200015f565b506004818051620001379291602001906200015f565b50506006805460ff1916601217905550506009805461ffff1916905550504360085562000204565b828054600181600116156101000203166002900490600052602060002090601f016020900481019282601f10620001a257805160ff1916838001178555620001d2565b82800160010185558215620001d2579182015b82811115620001d2578251825591602001919060010190620001b5565b50620001e0929150620001e4565b5090565b6200020191905b80821115620001e05760008155600101620001eb565b90565b61170780620002146000396000f3006060604052361561017a5763ffffffff60e060020a60003504166305d2035b811461017f57806306fdde03146101a6578063095ea7b314610230578063128f04e71461025257806317634514146102e157806318160ddd146103065780631a53cd901461031957806323b872dd1461032c578063313ce5671461035457806340c10f191461037d5780634ee2cd7e1461039f57806354fd4d50146103c15780635d0a7628146103d45780636d16fa41146103e757806370a0823114610408578063763fd2ab146104275780637d64bcb41461043a57806380a540011461044d57806395d89b411461047c578063981b24d01461048f5780639ed74a23146104a5578063a9059cbb1461053d578063aec318f11461055f578063b127326e14610577578063bef97c871461058a578063c5bcc4f11461059d578063cae9ca51146105b0578063dd62ed3e14610615578063e77772fe1461063a578063f41e60c51461064d578063f77c479114610665578063fc0d011714610678575b600080fd5b341561018a57600080fd5b61019261068b565b604051901515815260200160405180910390f35b34156101b157600080fd5b6101b9610694565b60405160208082528190810183818151815260200191508051906020019080838360005b838110156101f55780820151838201526020016101dd565b50505050905090810190601f1680156102225780820380516001836020036101000a031916815260200191505b509250505060405180910390f35b341561023b57600080fd5b610192600160a060020a0360043516602435610732565b341561025d57600080fd5b6101926004602481358181019083013580602081810201604051908101604052809392919081815260200183836020028082843782019150505050505091908035906020019082018035906020019080806020026020016040519081016040528093929190818152602001838360200280828437509496506107eb95505050505050565b34156102ec57600080fd5b6102f4610913565b60405190815260200160405180910390f35b341561031157600080fd5b6102f4610919565b341561032457600080fd5b61019261092a565b341561033757600080fd5b610192600160a060020a0360043581169060243516604435610938565b341561035f57600080fd5b6103676109ae565b60405160ff909116815260200160405180910390f35b341561038857600080fd5b610192600160a060020a03600435166024356109b7565b34156103aa57600080fd5b6102f4600160a060020a0360043516602435610a97565b34156103cc57600080fd5b6101b9610bcd565b34156103df57600080fd5b610192610c38565b34156103f257600080fd5b610406600160a060020a0360043516610c69565b005b341561041357600080fd5b6102f4600160a060020a0360043516610cbf565b341561043257600080fd5b6102f4610cd3565b341561044557600080fd5b610192610ce1565b341561045857600080fd5b610460610d3c565b604051600160a060020a03909116815260200160405180910390f35b341561048757600080fd5b6101b9610d4b565b341561049a57600080fd5b6102f4600435610db6565b34156104b057600080fd5b610460600480359060446024803590810190830135806020601f8201819004810201604051908101604052818152929190602084018383808284378201915050505050509190803590602001908201803590602001908080601f016020809104026020016040519081016040528181529291906020840183838082843750949650610e9f95505050505050565b341561054857600080fd5b610192600160a060020a03600435166024356110b6565b341561056a57600080fd5b61040660043515156110ca565b341561058257600080fd5b6101926110ff565b341561059557600080fd5b61019261110d565b34156105a857600080fd5b6102f4611116565b34156105bb57600080fd5b61019260048035600160a060020a03169060248035919060649060443590810190830135806020601f8201819004810201604051908101604052818152929190602084018383808284375094965061111c95505050505050565b341561062057600080fd5b6102f4600160a060020a036004358116906024351661122d565b341561064557600080fd5b610460611258565b341561065857600080fd5b6104066004351515611267565b341561067057600080fd5b610460611295565b341561068357600080fd5b6104606112a4565b600d5460ff1681565b60038054600181600116156101000203166002900480601f01602080910402602001604051908101604052809291908181526020018280546001816001161561010002031660029004801561072a5780601f106106ff5761010080835404028352916020019161072a565b820191906000526020600020905b81548152906001019060200180831161070d57829003601f168201915b505050505081565b60095460009060ff16151561074657600080fd5b8115806107765750600160a060020a033381166000908152600c6020908152604080832093871683529290522054155b151561078157600080fd5b600160a060020a033381166000818152600c6020908152604080832094881680845294909152908190208590557f8c5be1e5ebec7d5bd14f71427d1e84f3dd0314c0f7b2291e5b200ac8c7c3b9259085905190815260200160405180910390a35060015b92915050565b60008054819033600160a060020a0390811691161461080957600080fd5b600d54610100900460ff161561081e57600080fd5b5060005b83518110156108f457610883600b600086848151811061083e57fe5b90602001906020020151600160a060020a0316600160a060020a0316815260200190815260200160002084838151811061087457fe5b906020019060200201516112b9565b83818151811061088f57fe5b90602001906020020151600160a060020a031660007fddf252ad1be2c89b69c2b068fc378daa952ba7f163c4a11628f55a4df523b3ef8584815181106108d157fe5b9060200190602002015160405190815260200160405180910390a3600101610822565b610909600a6917cc7ef452b6825387606112b9565b5060019392505050565b60085481565b600061092443610db6565b90505b90565b600d54610100900460ff1681565b600160a060020a038084166000908152600c60209081526040808320339094168352929052908120548290101561096e57600080fd5b600160a060020a038085166000908152600c6020908152604080832033909416835292905220805483900390556109a68484846113af565b949350505050565b60065460ff1681565b600080548190819033600160a060020a039081169116146109d757600080fd5b600d5460ff16156109e757600080fd5b6109ef610919565b91506109fa85610cbf565b905083820182901015610a0c57600080fd5b83810181901015610a1c57600080fd5b610a29600a8584016112b9565b600160a060020a0385166000908152600b60205260409020610a4d908286016112b9565b84600160a060020a031660007fddf252ad1be2c89b69c2b068fc378daa952ba7f163c4a11628f55a4df523b3ef8660405190815260200160405180910390a3506001949350505050565b600160a060020a0382166000908152600b60205260408120541580610af35750600160a060020a0383166000908152600b6020526040812080548492908110610adc57fe5b6000918252602090912001546001608060020a0316115b15610ba457600154600160a060020a031615610b9c57600154600754600160a060020a0390911690634ee2cd7e908590610b2e90869061151f565b60006040516020015260405160e060020a63ffffffff8516028152600160a060020a0390921660048301526024820152604401602060405180830381600087803b1515610b7a57600080fd5b6102c65a03f11515610b8b57600080fd5b5050506040518051905090506107e5565b5060006107e5565b600160a060020a0383166000908152600b60205260409020610bc69083611535565b90506107e5565b60058054600181600116156101000203166002900480601f01602080910402602001604051908101604052809291908181526020018280546001816001161561010002031660029004801561072a5780601f106106ff5761010080835404028352916020019161072a565b6000805433600160a060020a03908116911614610c5457600080fd5b50600d805461ff001916610100179055600190565b60005433600160a060020a03908116911614610c8457600080fd5b600160a060020a03811615610cbc576000805473ffffffffffffffffffffffffffffffffffffffff1916600160a060020a0383161790555b50565b6000610ccb8243610a97565b90505b919050565b6917cc7ef452b68253876081565b6000805433600160a060020a03908116911614610cfd57600080fd5b600d805460ff191660011790557fae5184fba832cb2b1f702aca6117b8d265eaf03ad33eb133f19dde0f5920fa0860405160405180910390a150600190565b600154600160a060020a031681565b60048054600181600116156101000203166002900480601f01602080910402602001604051908101604052809291908181526020018280546001816001161561010002031660029004801561072a5780601f106106ff5761010080835404028352916020019161072a565b600a546000901580610deb575081600a6000815481101515610dd457fe5b6000918252602090912001546001608060020a0316115b15610e8d57600154600160a060020a031615610e8557600154600754600160a060020a039091169063981b24d090610e2490859061151f565b60006040516020015260405160e060020a63ffffffff84160281526004810191909152602401602060405180830381600087803b1515610e6357600080fd5b6102c65a03f11515610e7457600080fd5b505050604051805190509050610cce565b506000610cce565b610e98600a83611535565b9050610cce565b600080841515610ead574394505b43851115610eb9574394505b600254600160a060020a03166359b58dba308787876000604051602001526040518563ffffffff1660e060020a0281526004018085600160a060020a0316600160a060020a031681526020018481526020018060200180602001838103835285818151815260200191508051906020019080838360005b83811015610f48578082015183820152602001610f30565b50505050905090810190601f168015610f755780820380516001836020036101000a031916815260200191505b50838103825284818151815260200191508051906020019080838360005b83811015610fab578082015183820152602001610f93565b50505050905090810190601f168015610fd85780820380516001836020036101000a031916815260200191505b509650505050505050602060405180830381600087803b1515610ffa57600080fd5b6102c65a03f1151561100b57600080fd5b5050506040518051915050600160a060020a038116636d16fa413360405160e060020a63ffffffff8416028152600160a060020a039091166004820152602401600060405180830381600087803b151561106457600080fd5b6102c65a03f1151561107557600080fd5b50505080600160a060020a03167ff30000f977bee4f7df8246f69a4ba66f2d5be05d1fdaa0f0044d24fc52748b0060405160405180910390a2949350505050565b60006110c33384846113af565b9392505050565b60005433600160a060020a039081169116146110e557600080fd5b600980549115156101000261ff0019909216919091179055565b600954610100900460ff1681565b60095460ff1681565b60075481565b60006111288484610732565b5083600160a060020a0316638f4ffcb1338530866040518563ffffffff1660e060020a0281526004018085600160a060020a0316600160a060020a0316815260200184815260200183600160a060020a0316600160a060020a0316815260200180602001828103825283818151815260200191508051906020019080838360005b838110156111c15780820151838201526020016111a9565b50505050905090810190601f1680156111ee5780820380516001836020036101000a031916815260200191505b5095505050505050600060405180830381600087803b151561120f57600080fd5b6102c65a03f1151561122057600080fd5b5060019695505050505050565b600160a060020a039182166000908152600c6020908152604080832093909416825291909152205490565b600254600160a060020a031681565b60005433600160a060020a0390811691161461128257600080fd5b6009805460ff1916911515919091179055565b600054600160a060020a031681565b600954620100009004600160a060020a031681565b8154600090819015806112f2575083544390859060001981019081106112db57fe5b6000918252602090912001546001608060020a0316105b1561136457835484906113088260018301611694565b8154811061131257fe5b600091825260209091200180546001608060020a03858116700100000000000000000000000000000000024382166fffffffffffffffffffffffffffffffff19909316929092171617815591506113a9565b83548490600019810190811061137657fe5b600091825260209091200180546001608060020a0380861670010000000000000000000000000000000002911617815590505b50505050565b6009546000908190819033600160a060020a039081166201000090920416146113e85760095460ff1615156113e357600080fd5b6113fe565b600954610100900460ff1615156113fe57600080fd5b6000841161140b57600080fd5b60075443901061141a57600080fd5b600160a060020a03851615801590611444575030600160a060020a031685600160a060020a031614155b151561144f57600080fd5b6114598643610a97565b91508382101561146857600080fd5b600160a060020a0386166000908152600b6020526040902061148c908584036112b9565b6114968543610a97565b9050838101819010156114a857600080fd5b600160a060020a0385166000908152600b602052604090206114cc908286016112b9565b84600160a060020a031686600160a060020a03167fddf252ad1be2c89b69c2b068fc378daa952ba7f163c4a11628f55a4df523b3ef8660405190815260200160405180910390a350600195945050505050565b600081831061152e57816110c3565b5090919050565b600080600080858054905060001415611551576000935061168b565b85548690600019810190811061156357fe5b6000918252602090912001546001608060020a031685106115c05785548690600019810190811061159057fe5b60009182526020909120015470010000000000000000000000000000000090046001608060020a0316935061168b565b8560008154811015156115cf57fe5b6000918252602090912001546001608060020a03168510156115f4576000935061168b565b8554600093506000190191505b8282111561165157600260018385010104905084868281548110151561162357fe5b6000918252602090912001546001608060020a0316116116455780925061164c565b6001810391505b611601565b858381548110151561165f57fe5b60009182526020909120015470010000000000000000000000000000000090046001608060020a031693505b50505092915050565b8154818355818115116116b8576000838152602090206116b89181019083016116bd565b505050565b61092791905b808211156116d757600081556001016116c3565b50905600a165627a7a72305820829bad4431fe0c033e9834d7755726f464638a23ad67d7035d0681fc7e648f4b0029a165627a7a723058208314efbda3038fca389784c4b197c3e2414d97feb75516e6f0dbd05e037025800029",
  "source": "pragma solidity 0.4.17;\n\nimport './NovaToken.sol';\nimport './Ownable.sol';\n\ncontract TokenFactory {\n\n    function createCloneToken(\n        address _parentToken,\n        uint _snapshotBlock,\n        string _tokenName,\n        string _tokenSymbol\n        ) public returns (NovaToken) \n    {\n\n        NovaToken newToken = new NovaToken(\n            this,\n            _parentToken,\n            _snapshotBlock,\n            _tokenName,\n            _tokenSymbol\n        );\n\n        newToken.transferControl(msg.sender);\n        return newToken;\n    }\n}",
  "sourcePath": "/Users/thanhtu/Projects/Blockchain/novalex-dex-starterkit/tokensale/contracts/contracts/TokenFactory.sol",
  "compiler": {
    "name": "solc",
    "version": "0.4.17+commit.bdeb9e52.Emscripten.clang"
  },
  "schemaVersion": "3.0.11",
  "updatedAt": "2019-06-27T04:09:16.169Z",
  "devdoc": {
    "methods": {}
  },
  "userdoc": {
    "methods": {}
  }
}